:100000000C942A000C9447000C9447000C94470071
:100010000C9447000C9447000C9447000C94470044
:100020000C9447000C9447000C9447000C94470034
:100030000C9447000C9447000C9447000C94470024
:100040000C9447000C9447000C9447000C94470014
:100050000C94470011241FBECFE5D4E0DEBFCDBF16
:1000600011E0A0E6B0E0EEE7FFE002C005900D92DF
:10007000A430B107D9F721E0A4E0B1E001C01D929E
:10008000A131B207E1F70E9431020C94BD070C9434
:10009000000086B38F708F3051F0B09B0AC0B19BC7
:1000A0000AC0B29B0AC0B39B0AC080E0089580E0FA
:1000B000089581E0089582E0089583E0089584E042
:1000C00008951ABA87E886B980E487B908958770D9
:1000D000806487B986B1806486B9349BFECF86B1CF
:1000E000806186B98FEC97E00197F1F700C00000BE
:1000F00084B195B1089582B3806882BB88E08A9507
:10010000F1F782B38F7782BB85E88A95F1F700001B
:10011000089580FF04C095B3906195BB03C095B36B
:100120009F7E95BB81FF04C095B3906295BB03C0D1
:1001300095B39F7D95BB82FF04C095B3906495BB3A
:1001400003C095B39F7B95BB83FF04C085B38068D4
:1001500085BB089585B38F7785BB0895CF93C82F4E
:1001600082958F700E9489000E947B008C2F0E94D4
:1001700089000E947B00CF91089581E00E94AE002B
:100180008FE99FE00197F1F700C00000089580E03B
:100190000E9489008FE39CE90197F1F700C00000FD
:1001A00082B38F7B82BB82B38F7D82BB83E00E9450
:1001B00089000E947B008FE097E20197F1F700C071
:1001C00000000E947B0087EC90E00197F1F700C0EF
:1001D00000000E947B0082E00E9489000E947B0058
:1001E00088E20E94AE008CE00E94AE0086E00E9491
:1001F000AE000E94BD000895611102C0805801C088
:1002000080540E94AE00089592B3906492BB0E9405
:10021000AE0082B38F7B82BB0895CF93DF93EC0156
:1002200003C00E940401219688818111FACFDF91D9
:10023000CF910895CF93DF93CDB7DEB7EE970FB68A
:10024000F894DEBF0FBECDBF80E1E0E6F0E0DE0156
:10025000919601900D928A95E1F78FEF82BB2FEF77
:1002600030E742E0215030404040E1F700C000005C
:1002700087E090E015C0FC01EE0FFF1F21E030E0A9
:100280002C0F3D1FE20FF31F20A122BB3FEF40E7E1
:1002900022E0315040402040E1F700C000000197CB
:1002A00099234CF780E1E0E6F0E0DE015196019001
:1002B0000D928A95E1F712BA3FEF40E782E03150A4
:1002C00040408040E1F700C0000080E090E015C0B1
:1002D000FC01EE0FFF1F21E030E02C0F3D1FE20F6D
:1002E000F31F208922BB3FEF40E722E0315040401E
:1002F0002040E1F700C0000001968830910544F3EA
:1003000080E1E0E7F0E0DE01119601900D928A9520
:10031000E1F78FEF82BB3FEF40E782E03150404092
:100320008040E1F700C0000080E090E015C0FC01D3
:10033000EE0FFF1F21E030E02C0F3D1FE20FF31FF7
:10034000208122BB3FEF40E722E031504040204077
:10035000E1F700C0000001968830910544F33FEFBB
:1003600040E782E0315040408040E1F700C00000AB
:1003700087E090E015C0FC01EE0FFF1F21E030E0A8
:100380002C0F3D1FE20FF31F208122BB3FEF40E700
:1003900022E0315040402040E1F700C000000197CA
:1003A00099234CF78EE0E0E8F0E0DE01D196019071
:1003B0000D928A95E1F78FEF82BB3FEF41EE84E02B
:1003C000315040408040E1F700C0000080E090E004
:1003D00015C0FC01EE0FFF1F21E030E02C0F3D1F88
:1003E000E20FF31F20A922BB3FEF41EE24E0315082
:1003F00040402040E1F700C00000019687309105A1
:1004000044F322CFCF93DF93CDB7DEB764970FB617
:10041000F894DEBF0FBECDBF84E1EEE8F0E0DE0170
:10042000119601900D928A95E1F780E090E015C059
:10043000FC01EE0FFF1F21E030E02C0F3D1FE20F0B
:10044000F31F208125BB3FEF44E32CE031504040B7
:100450002040E1F700C0000001968A30910544F386
:10046000DBCF81B38FEF81BB92B392BB94B384BBDC
:1004700085B385BB1ABA87E886B980E487B90E943C
:10048000490080930401823059F018F4813031F032
:1004900018C1833039F0843091F313C10E941A01DE
:1004A0000E9402020E94C7000E94610087E00E9431
:1004B000670090930B0180930A01BC01990F880B90
:1004C000990B0E94B1032EEF33E44AEF5EE30E94E2
:1004D0003E0460930D0170930E0180930F01909381
:1004E000100120E030E040EF51E40E94390418167A
:1004F000DCF50E94BD0060E080E00E94FC0082EA22
:1005000090E00E940D0160E08CE00E94FC001F92D0
:100510008FED8F9360910D0170910E0180910F010D
:10052000909110010E9479037F936F9380EB90E08C
:100530009F938F9385E091E09F938F930E94D304C4
:1005400085E091E00E940D0161E081E00E94FC00E5
:1005500087EB90E00E940D018DB79EB708960FB60D
:10056000F8949EBF0FBE8DBFC0900D01D0900E01BC
:10057000E0900F01F090100120E030E040EF51E4F6
:10058000C701B6010E94740388230CF045C020E027
:1005900030E040EA51E4C701B6010E943904181660
:1005A000DCF50E94BD0060E080E00E94FC0082EA71
:1005B00090E00E940D0160E08CE00E94FC001F9220
:1005C0008FED8F9360910D0170910E0180910F015D
:1005D000909110010E9479037F936F9380EB90E0DC
:1005E0009F938F9385E091E09F938F930E94D30414
:1005F00085E091E00E940D0161E080E00E94FC0036
:1006000086EC90E00E940D018DB79EB708960FB65C
:10061000F8949EBF0FBE8DBF60910D0170910E01C9
:1006200080910F019091100120E030E040EA51E408
:100630000E9474038823DCF50E94BD0060E080E026
:100640000E94FC0082EA90E00E940D0160E08CE0D4
:100650000E94FC001F928FED8F9360910D017091AD
:100660000E0180910F01909110010E9479037F93F8
:100670006F9380EB90E09F938F9385E091E09F9341
:100680008F930E94D30485E091E00E940D0161E008
:1006900081E00E94FC0087ED90E00E940D018DB783
:1006A0009EB708960FB6F8949EBF0FBE8DBF9FEF02
:1006B00023ED80E3915020408040E1F700C000002E
:1006C000F5CE0E94C70060E081E00E94FC0086EE4B
:1006D00090E00E940D0161E082E00E94FC0085EF45
:1006E00090E00E940D01CBCE0E94EC0308F481E063
:1006F00008950E9480036894B1110C943304089506
:100700000E94180488F09F5798F0B92F9927B75185
:10071000B0F0E1F0660F771F881F991F1AF0BA95A5
:10072000C9F714C0B13091F00E943204B1E00895CD
:100730000C943204672F782F8827B85F39F0B93FBF
:10074000CCF3869577956795B395D9F73EF4909558
:100750008095709561957F4F8F4F9F4F0895E894D6
:1007600009C097FB3EF490958095709561957F4FF9
:100770008F4F9F4F9923A9F0F92F96E9BB279395A7
:10078000F695879577956795B795F111F8CFFAF4B7
:10079000BB0F11F460FF1BC06F5F7F4F8F4F9F4FE8
:1007A00016C0882311F096E911C0772321F09EE846
:1007B000872F762F05C0662371F096E8862F70E0AC
:1007C00060E02AF09A95660F771F881FDAF7880F86
:1007D0009695879597F90895990F0008550FAA0BDC
:1007E000E0E8FEEF16161706E807F907C0F0121644
:1007F0001306E407F50798F0621B730B840B950B47
:1008000039F40A2661F0232B242B252B21F408959B
:100810000A2609F4A140A6958FEF811D811D089538
:1008200057FD9058440F551F59F05F3F71F04795A1
:10083000880F97FB991F61F09F3F79F08795089586
:10084000121613061406551FF2CF4695F1DF08C0A5
:10085000161617061806991FF1CF869571056105C2
:1008600008940895E894BB2766277727CB0197F96A
:1008700008950E94EC0308F48FEF08950E9451043C
:100880000C94C2040E94B40438F00E94BB0420F00F
:10089000952311F00C94AB040C94B10411240C9426
:1008A00033040E94100470F3959FC1F3950F50E03C
:1008B000551F629FF001729FBB27F00DB11D639F12
:1008C000AA27F00DB11DAA1F649F6627B00DA11DB8
:1008D000661F829F2227B00DA11D621F739FB00D5E
:1008E000A11D621F839FA00D611D221F749F3327CE
:1008F000A00D611D231F849F600D211D822F762F67
:100900006A2F11249F5750409AF0F1F088234AF043
:10091000EE0FFF1FBB1F661F771F881F91505040AF
:10092000A9F79E3F510580F00C94AB040C9433045E
:100930005F3FE4F3983ED4F3869577956795B79536
:10094000F795E7959F5FC1F7FE2B880F911D969550
:10095000879597F9089597F99F6780E870E060E0C0
:1009600008959FEF80EC089500240A941616170648
:1009700018060906089500240A9412161306140690
:1009800005060895092E0394000C11F4882352F0F3
:10099000BB0F40F4BF2B11F460FF04C06F5F7F4FAB
:1009A0008F4F9F4F0895AEE0B0E0E9EDF4E00C9476
:1009B00094070D891E8986E08C831A8309838FEF43
:1009C0009FE79E838D83AE01475E5F4F6F89788D71
:1009D000CE0101960E94F504EF81F885E00FF11F2A
:1009E00010822E96E4E00C94B007ABE0B0E0EBEFA1
:1009F000F4E00C9486076C017B018A01FC011782EC
:100A00001682838181FFCCC1CE0101963C01F601A3
:100A10009381F70193FD859193FF81917F01882355
:100A200009F4BAC1853239F493FD859193FF819120
:100A30007F01853229F4B60190E00E94EC06E7CFF1
:100A4000912C212C312CFFE1F315D8F08B3279F069
:100A500038F4803279F08332A1F4232D20611DC057
:100A60008D3261F0803369F4232D216016C0832D0F
:100A70008260382EE32DE4603E2E2AC0F32DF8600C
:100A80001DC037FC2DC020ED280F2A3040F08E32DB
:100A9000B9F436FC81C1232D2064322E19C036FEF4
:100AA00006C08AE0989E200D1124922E11C0EAE023
:100AB0002E9E200D1124222EF32DF0623F2E08C011
:100AC0008C3621F4832D8068382E02C0883641F49C
:100AD000F70193FD859193FF81917F018111B3CF40
:100AE000982F9F7D9554933028F40C5F1F4F9FE300
:100AF00099830DC0833631F0833771F0833509F067
:100B000059C021C0F801808189830E5F1F4F88245E
:100B10008394912C530113C02801F2E04F0E511C15
:100B2000F801A080B18036FE03C0692D70E002C0DC
:100B30006FEF7FEFC5010E94E1064C018201F32DAA
:100B4000FF773F2E16C0280122E0420E511CF8010B
:100B5000A080B18036FE03C0692D70E002C06FEF47
:100B60007FEFC5010E94D6064C01F32DF0683F2EA1
:100B7000820133FC1BC0822D90E088169906B0F4E8
:100B8000B60180E290E00E94EC062A94F4CFF501D1
:100B900037FC859137FE81915F01B60190E00E949C
:100BA000EC0621102A9421E0821A91088114910404
:100BB00071F7E8C0843611F0893641F5F80137FE47
:100BC00007C060817181828193810C5F1F4F08C0D3
:100BD00060817181072E000C880B990B0E5F1F4FEF
:100BE000F32DFF763F2E97FF09C090958095709565
:100BF00061957F4F8F4F9F4FF0683F2E2AE030E086
:100C0000A3010E942807882E861845C0853731F435
:100C1000232D2F7EB22E2AE030E025C0932D997F20
:100C2000B92E8F36C1F018F4883579F0B5C0803709
:100C300019F0883721F0B0C0E92FE061BE2EB4FE74
:100C40000DC0FB2DF460BF2E09C034FE0AC0292F51
:100C50002660B22E06C028E030E005C020E130E07A
:100C600002C020E132E0F801B7FE07C06081718167
:100C7000828193810C5F1F4F06C06081718180E08B
:100C800090E00E5F1F4FA3010E942807882E861850
:100C9000FB2DFF773F2E36FE0DC0232D2E7FA22E7B
:100CA000891458F434FE0BC032FC09C0832D8E7EAB
:100CB000A82E05C0B82CA32C03C0B82C01C0B92C99
:100CC000A4FE0FC0FE01E80DF11D8081803321F4E8
:100CD0009A2D997EA92E09C0A2FE06C0B394B394A2
:100CE00004C08A2D867809F0B394A3FC11C0A0FE3D
:100CF00006C0B21488F4280C922C9B180EC0B214B3
:100D000060F4B60180E290E00E94EC06B394F7CF65
:100D1000B21418F42B1802C0982C212CA4FE10C079
:100D2000B60180E390E00E94EC06A2FE17C0A1FC91
:100D300003C088E790E002C088E590E0B6010CC0EF
:100D40008A2D867859F0A1FE02C08BE201C080E2B4
:100D5000A7FC8DE2B60190E00E94EC06891438F4FD
:100D6000B60180E390E00E94EC069A94F7CF8A9453
:100D7000F301E80DF11D8081B60190E00E94EC06C0
:100D80008110F5CF222009F442CEB60180E290E036
:100D90000E94EC062A94F6CFF6018681978102C064
:100DA0008FEF9FEF2B96E2E10C94A207FC010590D8
:100DB000615070400110D8F7809590958E0F9F1F5D
:100DC0000895FC016150704001900110D8F78095A2
:100DD00090958E0F9F1F08950F931F93CF93DF93CE
:100DE000FB01238121FD03C08FEF9FEF2CC022FF69
:100DF00016C046815781248135814217530744F438
:100E0000A081B1819D012F5F3F4F318320838C935F
:100E1000268137812F5F3F4F3783268314C08B0194
:100E2000EC01FB010084F185E02D0995892BE1F6A9
:100E3000D80116968D919C911797019617969C93C1
:100E40008E931697CE01DF91CF911F910F91089548
:100E5000FA01AA27283051F1203181F1E8946F93EB
:100E60006E7F6E5F7F4F8F4F9F4FAF4FB1E03ED091
:100E7000B4E03CD0670F781F891F9A1FA11D680F2F
:100E8000791F8A1F911DA11D6A0F711D811D911D62
:100E9000A11D20D009F468943F912AE0269F1124D7
:100EA0003019305D3193DEF6CF010895462F47703B
:100EB000405D4193B3E00FD0C9F7F6CF462F4F7096
:100EC000405D4A3318F0495D31FD4052419302D0F4
:100ED000A9F7EACFB4E0A69597958795779567959A
:100EE000BA95C9F700976105710508959B01AC019A
:100EF0000A2E06945795479537952795BA95C9F7C1
:100F0000620F731F841F951FA01D08952F923F929B
:100F10004F925F926F927F928F929F92AF92BF9209
:100F2000CF92DF92EF92FF920F931F93CF93DF93B5
:100F3000CDB7DEB7CA1BDB0B0FB6F894DEBF0FBE12
:100F4000CDBF09942A88398848885F846E847D845F
:100F50008C849B84AA84B984C884DF80EE80FD8061
:100F60000C811B81AA81B981CE0FD11D0FB6F894D7
:0E0F7000DEBF0FBECDBFED010895F894FFCF98
:100F7E000100030007000F001F003F007F00FF006D
:100F8E00FE00FD00FB00F700EF00DF00BF007F005A
:100F9E007E00BD00DB00E700DB00BD007E008800A8
:100FAE00EB004C0049002B0019001800CB00080084
:100FBE00090054656D70657261747572653A200032
:100FCE002564256343200049742069732076657279
:100FDE007920686F74004974277320636F6D666F94
:100FEE00727461626C6500497420697320636F6C62
:100FFE0064206E6F77004E677579656E44696E6812
:10100E005475616E004D535356203230313832389C
:04101E003631000067
:00000001FF
